{
  "address": "0x442fa2307fE44B3F6C143B28321d40a95206E82f",
  "abi": [
    {
      "inputs": [
        {
          "internalType": "string",
          "name": "name_",
          "type": "string"
        },
        {
          "internalType": "string",
          "name": "symbol_",
          "type": "string"
        },
        {
          "internalType": "uint8",
          "name": "decimals_",
          "type": "uint8"
        }
      ],
      "stateMutability": "nonpayable",
      "type": "constructor"
    },
    {
      "inputs": [],
      "name": "ERC7984IncompatibleFunction",
      "type": "error"
    },
    {
      "inputs": [
        {
          "internalType": "address",
          "name": "receiver",
          "type": "address"
        }
      ],
      "name": "ERC7984InvalidReceiver",
      "type": "error"
    },
    {
      "inputs": [
        {
          "internalType": "address",
          "name": "sender",
          "type": "address"
        }
      ],
      "name": "ERC7984InvalidSender",
      "type": "error"
    },
    {
      "inputs": [
        {
          "internalType": "address",
          "name": "caller",
          "type": "address"
        }
      ],
      "name": "ERC7984UnauthorizedCaller",
      "type": "error"
    },
    {
      "inputs": [
        {
          "internalType": "address",
          "name": "holder",
          "type": "address"
        },
        {
          "internalType": "address",
          "name": "spender",
          "type": "address"
        }
      ],
      "name": "ERC7984UnauthorizedSpender",
      "type": "error"
    },
    {
      "inputs": [
        {
          "internalType": "euint64",
          "name": "amount",
          "type": "bytes32"
        },
        {
          "internalType": "address",
          "name": "user",
          "type": "address"
        }
      ],
      "name": "ERC7984UnauthorizedUseOfEncryptedAmount",
      "type": "error"
    },
    {
      "inputs": [
        {
          "internalType": "address",
          "name": "holder",
          "type": "address"
        }
      ],
      "name": "ERC7984ZeroBalance",
      "type": "error"
    },
    {
      "inputs": [
        {
          "internalType": "uint8",
          "name": "got",
          "type": "uint8"
        },
        {
          "internalType": "uint8",
          "name": "expected",
          "type": "uint8"
        }
      ],
      "name": "InvalidEncryptedInput",
      "type": "error"
    },
    {
      "inputs": [
        {
          "internalType": "address",
          "name": "owner",
          "type": "address"
        }
      ],
      "name": "OwnableInvalidOwner",
      "type": "error"
    },
    {
      "inputs": [
        {
          "internalType": "address",
          "name": "account",
          "type": "address"
        }
      ],
      "name": "OwnableUnauthorizedAccount",
      "type": "error"
    },
    {
      "inputs": [
        {
          "internalType": "int32",
          "name": "value",
          "type": "int32"
        }
      ],
      "name": "SecurityZoneOutOfBounds",
      "type": "error"
    },
    {
      "anonymous": false,
      "inputs": [
        {
          "indexed": true,
          "internalType": "euint64",
          "name": "encryptedAmount",
          "type": "bytes32"
        },
        {
          "indexed": true,
          "internalType": "address",
          "name": "requester",
          "type": "address"
        }
      ],
      "name": "AmountDiscloseRequested",
      "type": "event"
    },
    {
      "anonymous": false,
      "inputs": [
        {
          "indexed": true,
          "internalType": "euint64",
          "name": "encryptedAmount",
          "type": "bytes32"
        },
        {
          "indexed": false,
          "internalType": "uint64",
          "name": "amount",
          "type": "uint64"
        }
      ],
      "name": "AmountDisclosed",
      "type": "event"
    },
    {
      "anonymous": false,
      "inputs": [
        {
          "indexed": true,
          "internalType": "address",
          "name": "owner",
          "type": "address"
        },
        {
          "indexed": true,
          "internalType": "address",
          "name": "spender",
          "type": "address"
        },
        {
          "indexed": false,
          "internalType": "uint256",
          "name": "value",
          "type": "uint256"
        }
      ],
      "name": "Approval",
      "type": "event"
    },
    {
      "anonymous": false,
      "inputs": [
        {
          "indexed": true,
          "internalType": "address",
          "name": "from",
          "type": "address"
        },
        {
          "indexed": true,
          "internalType": "address",
          "name": "to",
          "type": "address"
        },
        {
          "indexed": true,
          "internalType": "euint64",
          "name": "amount",
          "type": "bytes32"
        }
      ],
      "name": "ConfidentialTransfer",
      "type": "event"
    },
    {
      "anonymous": false,
      "inputs": [
        {
          "indexed": true,
          "internalType": "address",
          "name": "holder",
          "type": "address"
        },
        {
          "indexed": true,
          "internalType": "address",
          "name": "operator",
          "type": "address"
        },
        {
          "indexed": false,
          "internalType": "uint48",
          "name": "until",
          "type": "uint48"
        }
      ],
      "name": "OperatorSet",
      "type": "event"
    },
    {
      "anonymous": false,
      "inputs": [
        {
          "indexed": true,
          "internalType": "address",
          "name": "previousOwner",
          "type": "address"
        },
        {
          "indexed": true,
          "internalType": "address",
          "name": "newOwner",
          "type": "address"
        }
      ],
      "name": "OwnershipTransferred",
      "type": "event"
    },
    {
      "anonymous": false,
      "inputs": [
        {
          "indexed": true,
          "internalType": "address",
          "name": "from",
          "type": "address"
        },
        {
          "indexed": true,
          "internalType": "address",
          "name": "to",
          "type": "address"
        },
        {
          "indexed": false,
          "internalType": "uint256",
          "name": "value",
          "type": "uint256"
        }
      ],
      "name": "Transfer",
      "type": "event"
    },
    {
      "inputs": [
        {
          "internalType": "address",
          "name": "",
          "type": "address"
        },
        {
          "internalType": "address",
          "name": "",
          "type": "address"
        }
      ],
      "name": "allowance",
      "outputs": [
        {
          "internalType": "uint256",
          "name": "",
          "type": "uint256"
        }
      ],
      "stateMutability": "pure",
      "type": "function"
    },
    {
      "inputs": [
        {
          "internalType": "address",
          "name": "",
          "type": "address"
        },
        {
          "internalType": "uint256",
          "name": "",
          "type": "uint256"
        }
      ],
      "name": "approve",
      "outputs": [
        {
          "internalType": "bool",
          "name": "",
          "type": "bool"
        }
      ],
      "stateMutability": "pure",
      "type": "function"
    },
    {
      "inputs": [
        {
          "internalType": "address",
          "name": "account",
          "type": "address"
        }
      ],
      "name": "balanceOf",
      "outputs": [
        {
          "internalType": "uint256",
          "name": "",
          "type": "uint256"
        }
      ],
      "stateMutability": "view",
      "type": "function"
    },
    {
      "inputs": [],
      "name": "balanceOfIsIndicator",
      "outputs": [
        {
          "internalType": "bool",
          "name": "",
          "type": "bool"
        }
      ],
      "stateMutability": "pure",
      "type": "function"
    },
    {
      "inputs": [
        {
          "internalType": "address",
          "name": "account",
          "type": "address"
        }
      ],
      "name": "confidentialBalanceOf",
      "outputs": [
        {
          "internalType": "euint64",
          "name": "",
          "type": "bytes32"
        }
      ],
      "stateMutability": "view",
      "type": "function"
    },
    {
      "inputs": [
        {
          "internalType": "address",
          "name": "to",
          "type": "address"
        },
        {
          "components": [
            {
              "internalType": "uint256",
              "name": "ctHash",
              "type": "uint256"
            },
            {
              "internalType": "uint8",
              "name": "securityZone",
              "type": "uint8"
            },
            {
              "internalType": "uint8",
              "name": "utype",
              "type": "uint8"
            },
            {
              "internalType": "bytes",
              "name": "signature",
              "type": "bytes"
            }
          ],
          "internalType": "struct InEuint64",
          "name": "amount",
          "type": "tuple"
        }
      ],
      "name": "confidentialMint",
      "outputs": [
        {
          "internalType": "euint64",
          "name": "",
          "type": "bytes32"
        }
      ],
      "stateMutability": "nonpayable",
      "type": "function"
    },
    {
      "inputs": [],
      "name": "confidentialTotalSupply",
      "outputs": [
        {
          "internalType": "euint64",
          "name": "",
          "type": "bytes32"
        }
      ],
      "stateMutability": "view",
      "type": "function"
    },
    {
      "inputs": [
        {
          "internalType": "address",
          "name": "to",
          "type": "address"
        },
        {
          "internalType": "euint64",
          "name": "amount",
          "type": "bytes32"
        }
      ],
      "name": "confidentialTransfer",
      "outputs": [
        {
          "internalType": "euint64",
          "name": "",
          "type": "bytes32"
        }
      ],
      "stateMutability": "nonpayable",
      "type": "function"
    },
    {
      "inputs": [
        {
          "internalType": "address",
          "name": "to",
          "type": "address"
        },
        {
          "components": [
            {
              "internalType": "uint256",
              "name": "ctHash",
              "type": "uint256"
            },
            {
              "internalType": "uint8",
              "name": "securityZone",
              "type": "uint8"
            },
            {
              "internalType": "uint8",
              "name": "utype",
              "type": "uint8"
            },
            {
              "internalType": "bytes",
              "name": "signature",
              "type": "bytes"
            }
          ],
          "internalType": "struct InEuint64",
          "name": "encryptedAmount",
          "type": "tuple"
        }
      ],
      "name": "confidentialTransfer",
      "outputs": [
        {
          "internalType": "euint64",
          "name": "",
          "type": "bytes32"
        }
      ],
      "stateMutability": "nonpayable",
      "type": "function"
    },
    {
      "inputs": [
        {
          "internalType": "address",
          "name": "to",
          "type": "address"
        },
        {
          "internalType": "euint64",
          "name": "amount",
          "type": "bytes32"
        },
        {
          "internalType": "bytes",
          "name": "data",
          "type": "bytes"
        }
      ],
      "name": "confidentialTransferAndCall",
      "outputs": [
        {
          "internalType": "euint64",
          "name": "transferred",
          "type": "bytes32"
        }
      ],
      "stateMutability": "nonpayable",
      "type": "function"
    },
    {
      "inputs": [
        {
          "internalType": "address",
          "name": "to",
          "type": "address"
        },
        {
          "components": [
            {
              "internalType": "uint256",
              "name": "ctHash",
              "type": "uint256"
            },
            {
              "internalType": "uint8",
              "name": "securityZone",
              "type": "uint8"
            },
            {
              "internalType": "uint8",
              "name": "utype",
              "type": "uint8"
            },
            {
              "internalType": "bytes",
              "name": "signature",
              "type": "bytes"
            }
          ],
          "internalType": "struct InEuint64",
          "name": "encryptedAmount",
          "type": "tuple"
        },
        {
          "internalType": "bytes",
          "name": "data",
          "type": "bytes"
        }
      ],
      "name": "confidentialTransferAndCall",
      "outputs": [
        {
          "internalType": "euint64",
          "name": "transferred",
          "type": "bytes32"
        }
      ],
      "stateMutability": "nonpayable",
      "type": "function"
    },
    {
      "inputs": [
        {
          "internalType": "address",
          "name": "from",
          "type": "address"
        },
        {
          "internalType": "address",
          "name": "to",
          "type": "address"
        },
        {
          "components": [
            {
              "internalType": "uint256",
              "name": "ctHash",
              "type": "uint256"
            },
            {
              "internalType": "uint8",
              "name": "securityZone",
              "type": "uint8"
            },
            {
              "internalType": "uint8",
              "name": "utype",
              "type": "uint8"
            },
            {
              "internalType": "bytes",
              "name": "signature",
              "type": "bytes"
            }
          ],
          "internalType": "struct InEuint64",
          "name": "encryptedAmount",
          "type": "tuple"
        }
      ],
      "name": "confidentialTransferFrom",
      "outputs": [
        {
          "internalType": "euint64",
          "name": "transferred",
          "type": "bytes32"
        }
      ],
      "stateMutability": "nonpayable",
      "type": "function"
    },
    {
      "inputs": [
        {
          "internalType": "address",
          "name": "from",
          "type": "address"
        },
        {
          "internalType": "address",
          "name": "to",
          "type": "address"
        },
        {
          "internalType": "euint64",
          "name": "amount",
          "type": "bytes32"
        }
      ],
      "name": "confidentialTransferFrom",
      "outputs": [
        {
          "internalType": "euint64",
          "name": "transferred",
          "type": "bytes32"
        }
      ],
      "stateMutability": "nonpayable",
      "type": "function"
    },
    {
      "inputs": [
        {
          "internalType": "address",
          "name": "from",
          "type": "address"
        },
        {
          "internalType": "address",
          "name": "to",
          "type": "address"
        },
        {
          "internalType": "euint64",
          "name": "amount",
          "type": "bytes32"
        },
        {
          "internalType": "bytes",
          "name": "data",
          "type": "bytes"
        }
      ],
      "name": "confidentialTransferFromAndCall",
      "outputs": [
        {
          "internalType": "euint64",
          "name": "transferred",
          "type": "bytes32"
        }
      ],
      "stateMutability": "nonpayable",
      "type": "function"
    },
    {
      "inputs": [
        {
          "internalType": "address",
          "name": "from",
          "type": "address"
        },
        {
          "internalType": "address",
          "name": "to",
          "type": "address"
        },
        {
          "components": [
            {
              "internalType": "uint256",
              "name": "ctHash",
              "type": "uint256"
            },
            {
              "internalType": "uint8",
              "name": "securityZone",
              "type": "uint8"
            },
            {
              "internalType": "uint8",
              "name": "utype",
              "type": "uint8"
            },
            {
              "internalType": "bytes",
              "name": "signature",
              "type": "bytes"
            }
          ],
          "internalType": "struct InEuint64",
          "name": "encryptedAmount",
          "type": "tuple"
        },
        {
          "internalType": "bytes",
          "name": "data",
          "type": "bytes"
        }
      ],
      "name": "confidentialTransferFromAndCall",
      "outputs": [
        {
          "internalType": "euint64",
          "name": "transferred",
          "type": "bytes32"
        }
      ],
      "stateMutability": "nonpayable",
      "type": "function"
    },
    {
      "inputs": [],
      "name": "contractURI",
      "outputs": [
        {
          "internalType": "string",
          "name": "",
          "type": "string"
        }
      ],
      "stateMutability": "view",
      "type": "function"
    },
    {
      "inputs": [],
      "name": "decimals",
      "outputs": [
        {
          "internalType": "uint8",
          "name": "",
          "type": "uint8"
        }
      ],
      "stateMutability": "view",
      "type": "function"
    },
    {
      "inputs": [
        {
          "internalType": "euint64",
          "name": "encryptedAmount",
          "type": "bytes32"
        },
        {
          "internalType": "uint64",
          "name": "cleartextAmount",
          "type": "uint64"
        },
        {
          "internalType": "bytes",
          "name": "decryptionProof",
          "type": "bytes"
        }
      ],
      "name": "discloseEncryptedAmount",
      "outputs": [],
      "stateMutability": "nonpayable",
      "type": "function"
    },
    {
      "inputs": [],
      "name": "indicatorTick",
      "outputs": [
        {
          "internalType": "uint256",
          "name": "",
          "type": "uint256"
        }
      ],
      "stateMutability": "view",
      "type": "function"
    },
    {
      "inputs": [
        {
          "internalType": "address",
          "name": "holder",
          "type": "address"
        },
        {
          "internalType": "address",
          "name": "spender",
          "type": "address"
        }
      ],
      "name": "isOperator",
      "outputs": [
        {
          "internalType": "bool",
          "name": "",
          "type": "bool"
        }
      ],
      "stateMutability": "view",
      "type": "function"
    },
    {
      "inputs": [],
      "name": "name",
      "outputs": [
        {
          "internalType": "string",
          "name": "",
          "type": "string"
        }
      ],
      "stateMutability": "view",
      "type": "function"
    },
    {
      "inputs": [],
      "name": "owner",
      "outputs": [
        {
          "internalType": "address",
          "name": "",
          "type": "address"
        }
      ],
      "stateMutability": "view",
      "type": "function"
    },
    {
      "inputs": [],
      "name": "renounceOwnership",
      "outputs": [],
      "stateMutability": "nonpayable",
      "type": "function"
    },
    {
      "inputs": [
        {
          "internalType": "euint64",
          "name": "encryptedAmount",
          "type": "bytes32"
        }
      ],
      "name": "requestDiscloseEncryptedAmount",
      "outputs": [],
      "stateMutability": "nonpayable",
      "type": "function"
    },
    {
      "inputs": [],
      "name": "resetIndicatedBalance",
      "outputs": [],
      "stateMutability": "nonpayable",
      "type": "function"
    },
    {
      "inputs": [
        {
          "internalType": "address",
          "name": "operator",
          "type": "address"
        },
        {
          "internalType": "uint48",
          "name": "until",
          "type": "uint48"
        }
      ],
      "name": "setOperator",
      "outputs": [],
      "stateMutability": "nonpayable",
      "type": "function"
    },
    {
      "inputs": [
        {
          "internalType": "bytes4",
          "name": "interfaceId",
          "type": "bytes4"
        }
      ],
      "name": "supportsInterface",
      "outputs": [
        {
          "internalType": "bool",
          "name": "",
          "type": "bool"
        }
      ],
      "stateMutability": "view",
      "type": "function"
    },
    {
      "inputs": [],
      "name": "symbol",
      "outputs": [
        {
          "internalType": "string",
          "name": "",
          "type": "string"
        }
      ],
      "stateMutability": "view",
      "type": "function"
    },
    {
      "inputs": [],
      "name": "totalSupply",
      "outputs": [
        {
          "internalType": "uint256",
          "name": "",
          "type": "uint256"
        }
      ],
      "stateMutability": "view",
      "type": "function"
    },
    {
      "inputs": [
        {
          "internalType": "address",
          "name": "",
          "type": "address"
        },
        {
          "internalType": "uint256",
          "name": "",
          "type": "uint256"
        }
      ],
      "name": "transfer",
      "outputs": [
        {
          "internalType": "bool",
          "name": "",
          "type": "bool"
        }
      ],
      "stateMutability": "pure",
      "type": "function"
    },
    {
      "inputs": [
        {
          "internalType": "address",
          "name": "",
          "type": "address"
        },
        {
          "internalType": "address",
          "name": "",
          "type": "address"
        },
        {
          "internalType": "uint256",
          "name": "",
          "type": "uint256"
        }
      ],
      "name": "transferFrom",
      "outputs": [
        {
          "internalType": "bool",
          "name": "",
          "type": "bool"
        }
      ],
      "stateMutability": "pure",
      "type": "function"
    },
    {
      "inputs": [
        {
          "internalType": "address",
          "name": "newOwner",
          "type": "address"
        }
      ],
      "name": "transferOwnership",
      "outputs": [],
      "stateMutability": "nonpayable",
      "type": "function"
    }
  ],
  "transactionHash": "0x9c0b9c8f198f162d1b6ac3224cf0f6c0cab7c9c0b106264b50fc2e12719f812d",
  "args": [
    "Confidential USD",
    "cUSD",
    6
  ],
  "numDeployments": 1,
  "solcInputHash": "6f5f53c911bfceb8a0e016a88bbe4f4e",
  "bytecode": "0x608060405234801561000f575f80fd5b506040516125b43803806125b483398101604081905261002e916101d8565b3383838360405180602001604052805f815250836003908161005091906102d3565b50600461005d84826102d3565b506005805460ff191660ff8416179055600661007982826102d3565b5060048260ff1611156100a1576100916004836103a6565b61009c90600a6104a5565b6100a4565b60015b6009555050506001600160a01b03821690506100d957604051631e4fbdf760e01b81525f600482015260240160405180910390fd5b6100e2816100eb565b505050506104ba565b600a80546001600160a01b038381166001600160a01b0319831681179093556040519116919082907f8be0079c531659141344cd1fd0a4f28419497f9722a3daafe3b4186f6b6457e0905f90a35050565b634e487b7160e01b5f52604160045260245ffd5b5f82601f83011261015f575f80fd5b81516001600160401b03808211156101795761017961013c565b604051601f8301601f19908116603f011681019082821181831017156101a1576101a161013c565b816040528381528660208588010111156101b9575f80fd5b8360208701602083015e5f602085830101528094505050505092915050565b5f805f606084860312156101ea575f80fd5b83516001600160401b0380821115610200575f80fd5b61020c87838801610150565b94506020860151915080821115610221575f80fd5b5061022e86828701610150565b925050604084015160ff81168114610244575f80fd5b809150509250925092565b600181811c9082168061026357607f821691505b60208210810361028157634e487b7160e01b5f52602260045260245ffd5b50919050565b601f8211156102ce57805f5260205f20601f840160051c810160208510156102ac5750805b601f840160051c820191505b818110156102cb575f81556001016102b8565b50505b505050565b81516001600160401b038111156102ec576102ec61013c565b610300816102fa845461024f565b84610287565b602080601f831160018114610333575f841561031c5750858301515b5f19600386901b1c1916600185901b17855561038a565b5f85815260208120601f198616915b8281101561036157888601518255948401946001909101908401610342565b508582101561037e57878501515f19600388901b60f8161c191681555b505060018460011b0185555b505050505050565b634e487b7160e01b5f52601160045260245ffd5b60ff82811682821603908111156103bf576103bf610392565b92915050565b600181815b808511156103ff57815f19048211156103e5576103e5610392565b808516156103f257918102915b93841c93908002906103ca565b509250929050565b5f82610415575060016103bf565b8161042157505f6103bf565b816001811461043757600281146104415761045d565b60019150506103bf565b60ff84111561045257610452610392565b50506001821b6103bf565b5060208310610133831016604e8410600b8410161715610480575081810a6103bf565b61048a83836103c5565b805f190482111561049d5761049d610392565b029392505050565b5f6104b360ff841683610407565b9392505050565b6120ed806104c75f395ff3fe608060405234801561000f575f80fd5b50600436106101e7575f3560e01c806395d89b4111610109578063d174999a1161009e578063e8a3d4851161006e578063e8a3d485146103f0578063eb3155b5146103f8578063f2fde38b1461040b578063fca114d61461041e575f80fd5b8063d174999a146103a9578063d4febb96146103bc578063d8061806146103cf578063dd62ed3e146103e2575f80fd5b8063b1af281e116100d9578063b1af281e14610352578063b4b2019014610365578063b6363cf214610383578063c7b8a75e14610396575f80fd5b806395d89b4114610330578063a415f26914610338578063a794ee951461033f578063a9059cbb14610228575f80fd5b8063537d3c501161017f578063715018a61161014f578063715018a6146102e55780637edb0e7d146102ef5780638da5cb5b146103025780638f7c75781461031d575f80fd5b8063537d3c50146102a457806354095227146102b75780635bebed7e146102bf57806370a08231146102d2575f80fd5b806323b872dd116101ba57806323b872dd14610251578063313ce5671461025f578063344ff10114610274578063490690f31461029c575f80fd5b806301ffc9a7146101eb57806306fdde0314610213578063095ea7b31461022857806318160ddd1461023b575b5f80fd5b6101fe6101f9366004611901565b610431565b60405190151581526020015b60405180910390f35b61021b610482565b60405161020a9190611956565b6101fe610236366004611983565b610512565b61024361052c565b60405190815260200161020a565b6101fe6102363660046119ab565b60055460405160ff909116815260200161020a565b6102436102823660046119e4565b6001600160a01b03165f9081526020819052604090205490565b600954610243565b6102436102b2366004611a3a565b610548565b600254610243565b6102436102cd366004611983565b61059f565b6102436102e03660046119e4565b6105e2565b6102ed61060e565b005b6102436102fd366004611bcf565b610621565b600a546040516001600160a01b03909116815260200161020a565b61024361032b366004611c28565b610679565b61021b610699565b60016101fe565b61024361034d366004611c28565b6106a8565b6102ed610360366004611c68565b6106b7565b6102ed335f908152600760205260409020805463ffffffff19169055565b6101fe610391366004611cbb565b61073c565b6102436103a4366004611ce3565b61078e565b6102436103b7366004611d4c565b610819565b6102ed6103ca366004611da4565b61082f565b6102ed6103dd366004611de3565b61083e565b610243610236366004611cbb565b61021b6108a6565b6102436104063660046119ab565b6108b5565b6102ed6104193660046119e4565b610929565b61024361042c366004611dfa565b610966565b5f6001600160e01b031982166375a27c1960e01b148061046157506001600160e01b031982166336372b0760e01b145b8061047c57506301ffc9a760e01b6001600160e01b03198316145b92915050565b60606003805461049190611e6e565b80601f01602080910402602001604051908101604052809291908181526020018280546104bd90611e6e565b80156105085780601f106104df57610100808354040283529160200191610508565b820191905f5260205f20905b8154815290600101906020018083116104eb57829003601f168201915b5050505050905090565b5f6040516336009a2b60e11b815260040160405180910390fd5b6009546008545f916105439163ffffffff16611eba565b905090565b5f61055384336109ad565b61057e576040516367cfe80560e01b8152600481018590523360248201526044015b60405180910390fd5b61058b3386868686610a31565b90506105978133610a88565b949350505050565b5f6105aa82336109ad565b6105d0576040516367cfe80560e01b815260048101839052336024820152604401610575565b6105db338484610afc565b9392505050565b6009546001600160a01b0382165f90815260076020526040812054909161047c9163ffffffff16611eba565b610616610b5a565b61061f5f610b87565b565b5f61062c843361073c565b61065a57604051630f3e596760e31b81526001600160a01b0385166004820152336024820152604401610575565b61066d848461066885610bd8565b610afc565b90506105db8133610a88565b5f8061068483610bd8565b905061068f81610c3e565b6105978482610ca8565b60606004805461049190611e6e565b5f6105db338461066885610bd8565b6106f7848484848080601f0160208091040260200160405190810160405280939291908181526020018383808284375f92019190915250610cdd92505050565b506040516001600160401b038416815284907f83bbbc07896439e5d950a6cead04cbc676180af7a61cecf43f5296475057f5719060200160405180910390a250505050565b5f816001600160a01b0316836001600160a01b031614806105db5750506001600160a01b039182165f90815260016020908152604080832093909416825291909152205465ffffffffffff1642111590565b5f61079984336109ad565b6107bf576040516367cfe80560e01b815260048101859052336024820152604401610575565b6107c9863361073c565b6107f757604051630f3e596760e31b81526001600160a01b0387166004820152336024820152604401610575565b6108048686868686610a31565b90506108108133610a88565b95945050505050565b5f61058b338661082887610bd8565b8686610a31565b61083a338383610cf2565b5050565b61084881336109ad565b61086e576040516367cfe80560e01b815260048101829052336024820152604401610575565b61087781610d69565b604051339082907f189c3bfae2e5ce7726b29d57bb6ed0f1a7ebcd153a863ff5ecb6cd998064c98c905f90a350565b60606006805461049190611e6e565b5f6108c082336109ad565b6108e6576040516367cfe80560e01b815260048101839052336024820152604401610575565b6108f0843361073c565b61091e57604051630f3e596760e31b81526001600160a01b0385166004820152336024820152604401610575565b61066d848484610afc565b610931610b5a565b6001600160a01b03811661095a57604051631e4fbdf760e01b81525f6004820152602401610575565b61096381610b87565b50565b5f610971863361073c565b61099f57604051630f3e596760e31b81526001600160a01b0387166004820152336024820152604401610575565b610804868661082887610bd8565b604051632fd514cd60e11b8152600481018390526001600160a01b03821660248201525f9073ea30c4b8b44078bbf8a6ef5b9f1ec1626c7848d990635faa299a906044016020604051808303815f875af1158015610a0d573d5f803e3d5ffd5b505050506040513d601f19601f820116820180604052508101906105db9190611ed1565b5f80610a3e878787610afc565b90505f610a4f338989858989610da1565b90505f610a6f888a610a6a85610a645f610ea5565b88610eb0565b610f09565b9050610a7b8382611224565b9998505050505050505050565b6040516346ce4e4960e11b8152600481018390526001600160a01b038216602482015273ea30c4b8b44078bbf8a6ef5b9f1ec1626c7848d990638d9c9c92906044015b5f604051808303815f87803b158015610ae2575f80fd5b505af1158015610af4573d5f803e3d5ffd5b505050505050565b5f6001600160a01b038416610b265760405163ee457ebf60e01b81525f6004820152602401610575565b6001600160a01b038316610b4f57604051638d51880160e01b81525f6004820152602401610575565b610597848484610f09565b600a546001600160a01b0316331461061f5760405163118cdaa760e01b8152336004820152602401610575565b600a80546001600160a01b038381166001600160a01b0319831681179093556040519116919082907f8be0079c531659141344cd1fd0a4f28419497f9722a3daafe3b4186f6b6457e0905f90a35050565b5f610be882604001516005611265565b60408051608080820183525f808352602080840182905283850191909152606092830183905283519182018452855182528086015160ff1690820152600592810192909252808401519082015261047c90611298565b604051631974142760e21b81526004810182905230602482015273ea30c4b8b44078bbf8a6ef5b9f1ec1626c7848d9906365d0509c906044015b5f604051808303815f87803b158015610c8f575f80fd5b505af1158015610ca1573d5f803e3d5ffd5b5050505050565b5f6001600160a01b038316610cd257604051638d51880160e01b81525f6004820152602401610575565b6105db5f8484610f09565b5f61059784846001600160401b031684611313565b6001600160a01b038381165f81815260016020908152604080832094871680845294825291829020805465ffffffffffff191665ffffffffffff871690811790915591519182527f921a218a75d18e8ec5704851e6b234a85725b21a2521ce889622c35dedc1fa12910160405180910390a3505050565b604051631a778f2d60e11b81526004810182905273ea30c4b8b44078bbf8a6ef5b9f1ec1626c7848d9906334ef1e5a90602401610c78565b5f6001600160a01b0385163b15610e8e576040516346083bfd60e01b81526001600160a01b038616906346083bfd90610de6908a908a90899089908990600401611ef0565b6020604051808303815f875af1925050508015610e20575060408051601f3d908101601f19168201909252610e1d91810190611f42565b60015b610e87573d808015610e4d576040519150601f19603f3d011682016040523d82523d5f602084013e610e52565b606091505b5080515f03610e7f57604051638d51880160e01b81526001600160a01b0387166004820152602401610575565b805181602001fd5b9050610e9b565b610e98600161138f565b90505b9695505050505050565b5f61047c825f61139a565b5f610eba846113a8565b610eca57610ec75f61138f565b93505b610ed3836113a8565b610ee357610ee05f610ea5565b92505b610eec826113a8565b610efc57610ef95f610ea5565b91505b61059760058585856113b1565b5f80806001600160a01b038616610f6a57610f266002548561144b565b9092509050610f3481610c3e565b6002819055600854610f4b9063ffffffff1661149d565b6008805463ffffffff191663ffffffff92909216919091179055611038565b6001600160a01b0386165f90815260208190526040902054610f8b816114c5565b610fb3576040516317fe473760e21b81526001600160a01b0388166004820152602401610575565b610fbd81866114cf565b9093509150610fcb82610c3e565b610fd5828861154c565b6001600160a01b0387165f9081526020818152604080832085905560079091529020546110079063ffffffff16611593565b6001600160a01b0388165f908152600760205260409020805463ffffffff191663ffffffff92909216919091179055505b61104b82856110465f610ea5565b610eb0565b92506001600160a01b0385166110a85761106760025484611224565b905061107281610c3e565b60028190556008546110899063ffffffff16611593565b6008805463ffffffff191663ffffffff92909216919091179055611141565b6001600160a01b0385165f908152602081905260409020546110ca90846115b7565b90506110d581610c3e565b6110df818661154c565b6001600160a01b0385165f9081526020818152604080832084905560079091529020546111119063ffffffff1661149d565b6001600160a01b0386165f908152600760205260409020805463ffffffff191663ffffffff929092169190911790555b6001600160a01b0386161561115a5761115a838761154c565b6001600160a01b0385161561117357611173838661154c565b61117c83610c3e565b846001600160a01b0316866001600160a01b03167fddf252ad1be2c89b69c2b068fc378daa952ba7f163c4a11628f55a4df523b3ef6009546304c2430163ffffffff166111c99190611eba565b60405190815260200160405180910390a382856001600160a01b0316876001600160a01b03167f67500e8d0ed826d2194f514dd0d8124f35648ab6e3fb5e6ed867134cffe661e960405160405180910390a450509392505050565b5f61122e836113a8565b61123e5761123b5f610ea5565b92505b611247826113a8565b611257576112545f610ea5565b91505b6105db6005848460076115f4565b8060ff168260ff161461083a576040516367cf307160e01b815260ff808416600483015282166024820152604401610575565b6040516313fce3b160e11b81525f9073ea30c4b8b44078bbf8a6ef5b9f1ec1626c7848d9906327f9c762906112d39085903390600401611f59565b6020604051808303815f875af11580156112ef573d5f803e3d5ffd5b505050506040513d601f19601f8201168201806040525081019061047c9190611f42565b604051630135f2c360e61b81525f9073ea30c4b8b44078bbf8a6ef5b9f1ec1626c7848d990634d7cb0c09061135090879087908790600401611fb0565b602060405180830381865afa15801561136b573d5f803e3d5ffd5b505050506040513d601f19601f820116820180604052508101906105979190611ed1565b5f61047c825f61161b565b5f806105978460058561162f565b5f81151561047c565b5f73ea30c4b8b44078bbf8a6ef5b9f1ec1626c7848d9631888debd8660046113da8888886116d4565b604080515f815260208101918290526001600160e01b031960e087901b1690915261140b9392919060248101612008565b6020604051808303815f875af1158015611427573d5f803e3d5ffd5b505050506040513d601f19601f820116820180604052508101906108109190611f42565b5f80611456846114c5565b61146e57611464600161138f565b8391509150611496565b5f61147985856115b7565b90506114858186611765565b9250611492838287610eb0565b9150505b9250929050565b5f8163ffffffff165f036114ba5761047c6304c243006001612062565b61047c826001612062565b5f61047c826113a8565b5f806114da846114c5565b611523576114e7836114c5565b6114ff576114f5600161138f565b8491509150611496565b6115118361150c5f610ea5565b6117a6565b61151a5f610ea5565b91509150611496565b61152d8484611765565b91506115438261153d8686611224565b86610eb0565b90509250929050565b604051631974142760e21b8152600481018390526001600160a01b038216602482015273ea30c4b8b44078bbf8a6ef5b9f1ec1626c7848d9906365d0509c90604401610acb565b5f8163ffffffff165f036115ac57506304c24300919050565b61047c600183612086565b5f6115c1836113a8565b6115d1576115ce5f610ea5565b92505b6115da826113a8565b6115ea576115e75f610ea5565b91505b6105db6005848460085b5f73ea30c4b8b44078bbf8a6ef5b9f1ec1626c7848d9631888debd86846113da88886117e7565b5f808315611627575060015b5f610810825f865b604080515f8082526020820190925273ea30c4b8b44078bbf8a6ef5b9f1ec1626c7848d990631888debd908590601a90611675898960ff166116708a611854565b611889565b6040518563ffffffff1660e01b81526004016116949493929190612008565b6020604051808303815f875af11580156116b0573d5f803e3d5ffd5b505050506040513d601f19601f820116820180604052508101906105979190611f42565b604080516003808252608082019092526060915f9190602082018480368337019050509050845f1c815f8151811061170e5761170e6120a3565b602002602001018181525050835f1c81600181518110611730576117306120a3565b602002602001018181525050825f1c81600281518110611752576117526120a3565b6020908102919091010152949350505050565b5f61176f836113a8565b61177f5761177c5f610ea5565b92505b611788826113a8565b611798576117955f610ea5565b91505b6105db6005848460126115f4565b5f6117b0836113a8565b6117c0576117bd5f610ea5565b92505b6117c9826113a8565b6117d9576117d65f610ea5565b91505b6105db6005848460186115f4565b60408051600280825260608083018452925f929190602083019080368337019050509050835f1c815f81518110611820576118206120a3565b602002602001018181525050825f1c81600181518110611842576118426120a3565b60209081029190910101529392505050565b5f808260030b121561187f576040516311ead17f60e31b8152600383900b6004820152602401610575565b5063ffffffff1690565b604080516003808252608082019092526060915f919060208201848036833701905050905084815f815181106118c1576118c16120a3565b60200260200101818152505083816001815181106118e1576118e16120a3565b6020026020010181815250508281600281518110611752576117526120a3565b5f60208284031215611911575f80fd5b81356001600160e01b0319811681146105db575f80fd5b5f81518084528060208401602086015e5f602082860101526020601f19601f83011685010191505092915050565b602081525f6105db6020830184611928565b80356001600160a01b038116811461197e575f80fd5b919050565b5f8060408385031215611994575f80fd5b61199d83611968565b946020939093013593505050565b5f805f606084860312156119bd575f80fd5b6119c684611968565b92506119d460208501611968565b9150604084013590509250925092565b5f602082840312156119f4575f80fd5b6105db82611968565b5f8083601f840112611a0d575f80fd5b5081356001600160401b03811115611a23575f80fd5b602083019150836020828501011115611496575f80fd5b5f805f8060608587031215611a4d575f80fd5b611a5685611968565b93506020850135925060408501356001600160401b03811115611a77575f80fd5b611a83878288016119fd565b95989497509550505050565b634e487b7160e01b5f52604160045260245ffd5b604051608081016001600160401b0381118282101715611ac557611ac5611a8f565b60405290565b604051601f8201601f191681016001600160401b0381118282101715611af357611af3611a8f565b604052919050565b803560ff8116811461197e575f80fd5b5f60808284031215611b1b575f80fd5b611b23611aa3565b9050813581526020611b36818401611afb565b81830152611b4660408401611afb565b604083015260608301356001600160401b0380821115611b64575f80fd5b818501915085601f830112611b77575f80fd5b813581811115611b8957611b89611a8f565b611b9b601f8201601f19168501611acb565b91508082528684828501011115611bb0575f80fd5b80848401858401375f8482840101525080606085015250505092915050565b5f805f60608486031215611be1575f80fd5b611bea84611968565b9250611bf860208501611968565b915060408401356001600160401b03811115611c12575f80fd5b611c1e86828701611b0b565b9150509250925092565b5f8060408385031215611c39575f80fd5b611c4283611968565b915060208301356001600160401b03811115611c5c575f80fd5b61149285828601611b0b565b5f805f8060608587031215611c7b575f80fd5b8435935060208501356001600160401b038082168214611c99575f80fd5b90935060408601359080821115611cae575f80fd5b50611a83878288016119fd565b5f8060408385031215611ccc575f80fd5b611cd583611968565b915061154360208401611968565b5f805f805f60808688031215611cf7575f80fd5b611d0086611968565b9450611d0e60208701611968565b93506040860135925060608601356001600160401b03811115611d2f575f80fd5b611d3b888289016119fd565b969995985093965092949392505050565b5f805f8060608587031215611d5f575f80fd5b611d6885611968565b935060208501356001600160401b0380821115611d83575f80fd5b611d8f88838901611b0b565b94506040870135915080821115611cae575f80fd5b5f8060408385031215611db5575f80fd5b611dbe83611968565b9150602083013565ffffffffffff81168114611dd8575f80fd5b809150509250929050565b5f60208284031215611df3575f80fd5b5035919050565b5f805f805f60808688031215611e0e575f80fd5b611e1786611968565b9450611e2560208701611968565b935060408601356001600160401b0380821115611e40575f80fd5b611e4c89838a01611b0b565b94506060880135915080821115611e61575f80fd5b50611d3b888289016119fd565b600181811c90821680611e8257607f821691505b602082108103611ea057634e487b7160e01b5f52602260045260245ffd5b50919050565b634e487b7160e01b5f52601160045260245ffd5b808202811582820484141761047c5761047c611ea6565b5f60208284031215611ee1575f80fd5b815180151581146105db575f80fd5b6001600160a01b038681168252851660208201526040810184905260806060820181905281018290525f828460a08401375f60a0848401015260a0601f19601f85011683010190509695505050505050565b5f60208284031215611f52575f80fd5b5051919050565b604081528251604082015260ff602084015116606082015260ff60408401511660808201525f6060840151608060a0840152611f9860c0840182611928565b91505060018060a01b03831660208301529392505050565b838152826020820152606060408201525f6108106060830184611928565b5f815180845260208085019450602084015f5b83811015611ffd57815187529582019590820190600101611fe1565b509495945050505050565b60ff851681525f6020851061202b57634e487b7160e01b5f52602160045260245ffd5b846020830152608060408301526120456080830185611fce565b82810360608401526120578185611fce565b979650505050505050565b63ffffffff81811683821601908082111561207f5761207f611ea6565b5092915050565b63ffffffff82811682821603908082111561207f5761207f611ea6565b634e487b7160e01b5f52603260045260245ffdfea26469706673582212204983742ccaf646e4cceb31baae85861b38dd562a41d89ea4cfe25a1f610bb1b764736f6c63430008190033",
  "devdoc": {
    "errors": {
      "ERC7984IncompatibleFunction()": [
        {
          "details": "Reverts when a cleartext ERC-20 function is called on a confidential token."
        }
      ],
      "ERC7984InvalidReceiver(address)": [
        {
          "details": "The given receiver `receiver` is invalid for transfers."
        }
      ],
      "ERC7984InvalidSender(address)": [
        {
          "details": "The given sender `sender` is invalid for transfers."
        }
      ],
      "ERC7984UnauthorizedCaller(address)": [
        {
          "details": "The given caller `caller` is not authorized for the current operation."
        }
      ],
      "ERC7984UnauthorizedSpender(address,address)": [
        {
          "details": "The given holder `holder` is not authorized to spend on behalf of `spender`."
        }
      ],
      "ERC7984UnauthorizedUseOfEncryptedAmount(bytes32,address)": [
        {
          "details": "The caller `user` does not have access to the encrypted amount `amount`. NOTE: Try using the equivalent transfer function with an input proof."
        }
      ],
      "ERC7984ZeroBalance(address)": [
        {
          "details": "The holder `holder` is trying to send tokens but has a balance of 0."
        }
      ],
      "OwnableInvalidOwner(address)": [
        {
          "details": "The owner is not a valid owner account. (eg. `address(0)`)"
        }
      ],
      "OwnableUnauthorizedAccount(address)": [
        {
          "details": "The caller account is not authorized to perform an operation."
        }
      ]
    },
    "events": {
      "AmountDiscloseRequested(bytes32,address)": {
        "details": "Emitted when an encrypted amount `encryptedAmount` is requested for disclosure by `requester`."
      },
      "AmountDisclosed(bytes32,uint64)": {
        "details": "Emitted when an encrypted amount is disclosed. Accounts with access to the encrypted amount `encryptedAmount` that is also accessible to this contract should be able to disclose the amount. This functionality is implementation specific."
      },
      "Approval(address,address,uint256)": {
        "details": "Emitted when the allowance of a `spender` for an `owner` is set by a call to {approve}. `value` is the new allowance."
      },
      "ConfidentialTransfer(address,address,bytes32)": {
        "details": "Emitted when a confidential transfer is made from `from` to `to` of encrypted amount `amount`."
      },
      "OperatorSet(address,address,uint48)": {
        "details": "Emitted when the expiration timestamp for an operator `operator` is updated for a given `holder`. The operator may move any amount of tokens on behalf of the holder until the timestamp `until`."
      },
      "Transfer(address,address,uint256)": {
        "details": "Emitted when `value` tokens are moved from one account (`from`) to another (`to`). Note that `value` may be zero."
      }
    },
    "kind": "dev",
    "methods": {
      "allowance(address,address)": {
        "details": "Always reverts. Allowances are replaced by time-bound operators."
      },
      "approve(address,uint256)": {
        "details": "Always reverts. Use {setOperator} instead."
      },
      "balanceOf(address)": {
        "details": "Returns an indicator of the underlying encrypted balance. The value is **not** the real balance — it is a counter that starts at `7984.0001` on first interaction and shifts by `0.0001` per send/receive. A return value of `0` means the account has never interacted."
      },
      "balanceOfIsIndicator()": {
        "details": "Returns `true`, signalling that {balanceOf} returns an indicator, not a real balance."
      },
      "confidentialBalanceOf(address)": {
        "details": "Returns the confidential balance of the account `account`."
      },
      "confidentialTotalSupply()": {
        "details": "Returns the confidential total supply of the token."
      },
      "confidentialTransfer(address,(uint256,uint8,uint8,bytes))": {
        "details": "Transfers the encrypted amount `encryptedAmount` to `to`. Returns the encrypted amount that was actually transferred."
      },
      "confidentialTransfer(address,bytes32)": {
        "details": "Similar to {confidentialTransfer-address-InEuint64} but without an input proof.  The caller *must* already be allowed by ACL for the given `amount`."
      },
      "confidentialTransferAndCall(address,(uint256,uint8,uint8,bytes),bytes)": {
        "details": "Similar to {confidentialTransfer-address-InEuint64} but with a callback to `to` after the transfer. The callback is made to the {IERC7984Receiver-onConfidentialTransferReceived} function on the to address with the actual transferred amount (may differ from the given `encryptedAmount`) and the given data `data`."
      },
      "confidentialTransferAndCall(address,bytes32,bytes)": {
        "details": "Similar to {confidentialTransfer-address-euint64} but with a callback to `to` after the transfer."
      },
      "confidentialTransferFrom(address,address,(uint256,uint8,uint8,bytes))": {
        "details": "Transfers the encrypted amount `encryptedAmount` from `from` to `to`. `msg.sender` must be either `from` or an operator for `from`. Returns the encrypted amount that was actually transferred."
      },
      "confidentialTransferFrom(address,address,bytes32)": {
        "details": "Similar to {confidentialTransferFrom-address-address-InEuint64} but without an input proof. The caller *must* be already allowed by ACL for the given `amount`."
      },
      "confidentialTransferFromAndCall(address,address,(uint256,uint8,uint8,bytes),bytes)": {
        "details": "Similar to {confidentialTransferFrom-address-address-InEuint64} but with a callback to `to` after the transfer."
      },
      "confidentialTransferFromAndCall(address,address,bytes32,bytes)": {
        "details": "Similar to {confidentialTransferFrom-address-address-euint64} but with a callback to `to` after the transfer."
      },
      "contractURI()": {
        "details": "Returns the contract URI. See https://eips.ethereum.org/EIPS/eip-7572[ERC-7572] for details."
      },
      "decimals()": {
        "details": "Returns the number of decimals of the token. Recommended to be 6."
      },
      "discloseEncryptedAmount(bytes32,uint64,bytes)": {
        "details": "Publicly discloses an encrypted value with a given decryption proof. Emits the {AmountDisclosed} event. NOTE: May not be tied to a prior request via {requestDiscloseEncryptedAmount}."
      },
      "indicatorTick()": {
        "details": "Returns the raw unit size of a single indicator tick (scales with {decimals})."
      },
      "isOperator(address,address)": {
        "details": "Returns true if `spender` is currently an operator for `holder`."
      },
      "name()": {
        "details": "Returns the name of the token."
      },
      "owner()": {
        "details": "Returns the address of the current owner."
      },
      "renounceOwnership()": {
        "details": "Leaves the contract without owner. It will not be possible to call `onlyOwner` functions. Can only be called by the current owner. NOTE: Renouncing ownership will leave the contract without an owner, thereby disabling any functionality that is only available to the owner."
      },
      "requestDiscloseEncryptedAmount(bytes32)": {
        "details": "Starts the process to disclose an encrypted amount `encryptedAmount` publicly by making it publicly decryptable. Emits the {AmountDiscloseRequested} event. NOTE: Both `msg.sender` and `address(this)` must have permission to access the encrypted amount `encryptedAmount` to request disclosure of the encrypted amount `encryptedAmount`."
      },
      "resetIndicatedBalance()": {
        "details": "Resets the caller's indicated balance to `0` (no interaction)."
      },
      "setOperator(address,uint48)": {
        "details": "Sets `operator` as an operator for `holder` until the timestamp `until`. NOTE: An operator may transfer any amount of tokens on behalf of a holder while approved."
      },
      "supportsInterface(bytes4)": {
        "details": "Returns true if this contract implements the interface defined by `interfaceId`. See the corresponding https://eips.ethereum.org/EIPS/eip-165#how-interfaces-are-identified[ERC section] to learn more about how these ids are created. This function call must use less than 30 000 gas."
      },
      "symbol()": {
        "details": "Returns the symbol of the token."
      },
      "totalSupply()": {
        "details": "Returns an indicator of the underlying encrypted total supply. The value is **not** the real total supply — it is a counter that starts at `7984.0000` on first mint and shifts by `0.0001` per mint/burn."
      },
      "transfer(address,uint256)": {
        "details": "Always reverts. Use {confidentialTransfer} instead."
      },
      "transferFrom(address,address,uint256)": {
        "details": "Always reverts. Use {confidentialTransferFrom} instead."
      },
      "transferOwnership(address)": {
        "details": "Transfers ownership of the contract to a new account (`newOwner`). Can only be called by the current owner."
      }
    },
    "version": 1
  },
  "userdoc": {
    "kind": "user",
    "methods": {},
    "version": 1
  },
  "storageLayout": {
    "storage": [
      {
        "astId": 25559,
        "contract": "contracts/MockERC7984Token.sol:MockERC7984Token",
        "label": "_balances",
        "offset": 0,
        "slot": "0",
        "type": "t_mapping(t_address,t_userDefinedValueType(euint64)25)"
      },
      {
        "astId": 25565,
        "contract": "contracts/MockERC7984Token.sol:MockERC7984Token",
        "label": "_operators",
        "offset": 0,
        "slot": "1",
        "type": "t_mapping(t_address,t_mapping(t_address,t_uint48))"
      },
      {
        "astId": 25568,
        "contract": "contracts/MockERC7984Token.sol:MockERC7984Token",
        "label": "_totalSupply",
        "offset": 0,
        "slot": "2",
        "type": "t_userDefinedValueType(euint64)25"
      },
      {
        "astId": 25570,
        "contract": "contracts/MockERC7984Token.sol:MockERC7984Token",
        "label": "_name",
        "offset": 0,
        "slot": "3",
        "type": "t_string_storage"
      },
      {
        "astId": 25572,
        "contract": "contracts/MockERC7984Token.sol:MockERC7984Token",
        "label": "_symbol",
        "offset": 0,
        "slot": "4",
        "type": "t_string_storage"
      },
      {
        "astId": 25574,
        "contract": "contracts/MockERC7984Token.sol:MockERC7984Token",
        "label": "_decimals",
        "offset": 0,
        "slot": "5",
        "type": "t_uint8"
      },
      {
        "astId": 25576,
        "contract": "contracts/MockERC7984Token.sol:MockERC7984Token",
        "label": "_contractURI",
        "offset": 0,
        "slot": "6",
        "type": "t_string_storage"
      },
      {
        "astId": 25580,
        "contract": "contracts/MockERC7984Token.sol:MockERC7984Token",
        "label": "_indicatedBalances",
        "offset": 0,
        "slot": "7",
        "type": "t_mapping(t_address,t_uint32)"
      },
      {
        "astId": 25582,
        "contract": "contracts/MockERC7984Token.sol:MockERC7984Token",
        "label": "_indicatedTotalSupply",
        "offset": 0,
        "slot": "8",
        "type": "t_uint32"
      },
      {
        "astId": 25584,
        "contract": "contracts/MockERC7984Token.sol:MockERC7984Token",
        "label": "_indicatorTick",
        "offset": 0,
        "slot": "9",
        "type": "t_uint256"
      },
      {
        "astId": 19250,
        "contract": "contracts/MockERC7984Token.sol:MockERC7984Token",
        "label": "_owner",
        "offset": 0,
        "slot": "10",
        "type": "t_address"
      }
    ],
    "types": {
      "t_address": {
        "encoding": "inplace",
        "label": "address",
        "numberOfBytes": "20"
      },
      "t_mapping(t_address,t_mapping(t_address,t_uint48))": {
        "encoding": "mapping",
        "key": "t_address",
        "label": "mapping(address => mapping(address => uint48))",
        "numberOfBytes": "32",
        "value": "t_mapping(t_address,t_uint48)"
      },
      "t_mapping(t_address,t_uint32)": {
        "encoding": "mapping",
        "key": "t_address",
        "label": "mapping(address => uint32)",
        "numberOfBytes": "32",
        "value": "t_uint32"
      },
      "t_mapping(t_address,t_uint48)": {
        "encoding": "mapping",
        "key": "t_address",
        "label": "mapping(address => uint48)",
        "numberOfBytes": "32",
        "value": "t_uint48"
      },
      "t_mapping(t_address,t_userDefinedValueType(euint64)25)": {
        "encoding": "mapping",
        "key": "t_address",
        "label": "mapping(address => euint64)",
        "numberOfBytes": "32",
        "value": "t_userDefinedValueType(euint64)25"
      },
      "t_string_storage": {
        "encoding": "bytes",
        "label": "string",
        "numberOfBytes": "32"
      },
      "t_uint256": {
        "encoding": "inplace",
        "label": "uint256",
        "numberOfBytes": "32"
      },
      "t_uint32": {
        "encoding": "inplace",
        "label": "uint32",
        "numberOfBytes": "4"
      },
      "t_uint48": {
        "encoding": "inplace",
        "label": "uint48",
        "numberOfBytes": "6"
      },
      "t_uint8": {
        "encoding": "inplace",
        "label": "uint8",
        "numberOfBytes": "1"
      },
      "t_userDefinedValueType(euint64)25": {
        "encoding": "inplace",
        "label": "euint64",
        "numberOfBytes": "32"
      }
    }
  }
}